{
  "contractName": "todo_list",
  "abi": [
    {
      "inputs": [
        {
          "internalType": "string",
          "name": "taskName",
          "type": "string"
        }
      ],
      "stateMutability": "nonpayable",
      "type": "constructor"
    },
    {
      "inputs": [
        {
          "internalType": "uint256",
          "name": "",
          "type": "uint256"
        }
      ],
      "name": "TaskList",
      "outputs": [
        {
          "internalType": "address",
          "name": "creator",
          "type": "address"
        },
        {
          "internalType": "bool",
          "name": "completed",
          "type": "bool"
        },
        {
          "internalType": "string",
          "name": "task",
          "type": "string"
        },
        {
          "internalType": "uint256",
          "name": "createdAt",
          "type": "uint256"
        },
        {
          "internalType": "uint256",
          "name": "compltedAt",
          "type": "uint256"
        }
      ],
      "stateMutability": "view",
      "type": "function",
      "constant": true
    },
    {
      "inputs": [],
      "name": "count",
      "outputs": [
        {
          "internalType": "uint256",
          "name": "",
          "type": "uint256"
        }
      ],
      "stateMutability": "view",
      "type": "function",
      "constant": true
    },
    {
      "inputs": [
        {
          "internalType": "string",
          "name": "name",
          "type": "string"
        }
      ],
      "name": "addTask",
      "outputs": [],
      "stateMutability": "nonpayable",
      "type": "function"
    },
    {
      "inputs": [],
      "name": "getCount",
      "outputs": [
        {
          "internalType": "uint256",
          "name": "num",
          "type": "uint256"
        }
      ],
      "stateMutability": "view",
      "type": "function",
      "constant": true
    },
    {
      "inputs": [
        {
          "internalType": "uint256",
          "name": "id",
          "type": "uint256"
        }
      ],
      "name": "getTask",
      "outputs": [
        {
          "internalType": "address",
          "name": "owner",
          "type": "address"
        },
        {
          "internalType": "string",
          "name": "askedTask",
          "type": "string"
        },
        {
          "internalType": "bool",
          "name": "completed",
          "type": "bool"
        }
      ],
      "stateMutability": "view",
      "type": "function",
      "constant": true
    },
    {
      "inputs": [
        {
          "internalType": "uint256",
          "name": "id",
          "type": "uint256"
        }
      ],
      "name": "completeTask",
      "outputs": [],
      "stateMutability": "nonpayable",
      "type": "function"
    }
  ],
  "bytecode": "0x6080604052600080553480156200001557600080fd5b50604051620013a4380380620013a483398181016040528101906200003b9190620002f7565b6200004c816200005360201b60201c565b50620006f6565b600080815480929190620000679062000381565b91905055506040518060a001604052803373ffffffffffffffffffffffffffffffffffffffff1681526020016000151581526020018281526020014281526020016000815250600160008054815260200190815260200160002060008201518160000160006101000a81548173ffffffffffffffffffffffffffffffffffffffff021916908373ffffffffffffffffffffffffffffffffffffffff16021790555060208201518160000160146101000a81548160ff02191690831515021790555060408201518160010190816200013f91906200060f565b50606082015181600201556080820151816003015590505050565b6000604051905090565b600080fd5b600080fd5b600080fd5b600080fd5b6000601f19601f8301169050919050565b7f4e487b7100000000000000000000000000000000000000000000000000000000600052604160045260246000fd5b620001c38262000178565b810181811067ffffffffffffffff82111715620001e557620001e462000189565b5b80604052505050565b6000620001fa6200015a565b9050620002088282620001b8565b919050565b600067ffffffffffffffff8211156200022b576200022a62000189565b5b620002368262000178565b9050602081019050919050565b60005b838110156200026357808201518184015260208101905062000246565b8381111562000273576000848401525b50505050565b6000620002906200028a846200020d565b620001ee565b905082815260208101848484011115620002af57620002ae62000173565b5b620002bc84828562000243565b509392505050565b600082601f830112620002dc57620002db6200016e565b5b8151620002ee84826020860162000279565b91505092915050565b60006020828403121562000310576200030f62000164565b5b600082015167ffffffffffffffff81111562000331576200033062000169565b5b6200033f84828501620002c4565b91505092915050565b7f4e487b7100000000000000000000000000000000000000000000000000000000600052601160045260246000fd5b6000819050919050565b60006200038e8262000377565b91507fffffffffffffffffffffffffffffffffffffffffffffffffffffffffffffffff8203620003c357620003c262000348565b5b600182019050919050565b600081519050919050565b7f4e487b7100000000000000000000000000000000000000000000000000000000600052602260045260246000fd5b600060028204905060018216806200042157607f821691505b602082108103620004375762000436620003d9565b5b50919050565b60008190508160005260206000209050919050565b60006020601f8301049050919050565b600082821b905092915050565b600060088302620004a17fffffffffffffffffffffffffffffffffffffffffffffffffffffffffffffffff8262000462565b620004ad868362000462565b95508019841693508086168417925050509392505050565b6000819050919050565b6000620004f0620004ea620004e48462000377565b620004c5565b62000377565b9050919050565b6000819050919050565b6200050c83620004cf565b620005246200051b82620004f7565b8484546200046f565b825550505050565b600090565b6200053b6200052c565b6200054881848462000501565b505050565b5b8181101562000570576200056460008262000531565b6001810190506200054e565b5050565b601f821115620005bf5762000589816200043d565b620005948462000452565b81016020851015620005a4578190505b620005bc620005b38562000452565b8301826200054d565b50505b505050565b600082821c905092915050565b6000620005e460001984600802620005c4565b1980831691505092915050565b6000620005ff8383620005d1565b9150826002028217905092915050565b6200061a82620003ce565b67ffffffffffffffff81111562000636576200063562000189565b5b62000642825462000408565b6200064f82828562000574565b600060209050601f83116001811462000687576000841562000672578287015190505b6200067e8582620005f1565b865550620006ee565b601f19841662000697866200043d565b60005b82811015620006c1578489015182556001820191506020850194506020810190506200069a565b86831015620006e15784890151620006dd601f891682620005d1565b8355505b6001600288020188555050505b505050505050565b610c9e80620007066000396000f3fe608060405234801561001057600080fd5b50600436106100625760003560e01c806306661abd146100675780631d65e77e14610085578063313e6a12146100b757806367238562146100eb578063a87d942c14610107578063e1e2955814610125575b600080fd5b61006f610141565b60405161007c9190610514565b60405180910390f35b61009f600480360381019061009a919061056f565b610147565b6040516100ae93929190610691565b60405180910390f35b6100d160048036038101906100cc919061056f565b610254565b6040516100e29594939291906106cf565b60405180910390f35b6101056004803603810190610100919061085e565b61033f565b005b61010f610442565b60405161011c9190610514565b60405180910390f35b61013f600480360381019061013a919061056f565b61044b565b005b60005481565b60006060600060016000858152602001908152602001600020600101805461016e906108d6565b80601f016020809104026020016040519081016040528092919081815260200182805461019a906108d6565b80156101e75780601f106101bc576101008083540402835291602001916101e7565b820191906000526020600020905b8154815290600101906020018083116101ca57829003601f168201915b505050505091506001600085815260200190815260200160002060000160149054906101000a900460ff1690506001600085815260200190815260200160002060000160009054906101000a900473ffffffffffffffffffffffffffffffffffffffff1692509193909250565b60016020528060005260406000206000915090508060000160009054906101000a900473ffffffffffffffffffffffffffffffffffffffff16908060000160149054906101000a900460ff16908060010180546102b0906108d6565b80601f01602080910402602001604051908101604052809291908181526020018280546102dc906108d6565b80156103295780601f106102fe57610100808354040283529160200191610329565b820191906000526020600020905b81548152906001019060200180831161030c57829003601f168201915b5050505050908060020154908060030154905085565b60008081548092919061035190610936565b91905055506040518060a001604052803373ffffffffffffffffffffffffffffffffffffffff1681526020016000151581526020018281526020014281526020016000815250600160008054815260200190815260200160002060008201518160000160006101000a81548173ffffffffffffffffffffffffffffffffffffffff021916908373ffffffffffffffffffffffffffffffffffffffff16021790555060208201518160000160146101000a81548160ff02191690831515021790555060408201518160010190816104279190610b2a565b50606082015181600201556080820151816003015590505050565b60008054905090565b6001600082815260200190815260200160002060000160149054906101000a900460ff16156104af576040517f08c379a00000000000000000000000000000000000000000000000000000000081526004016104a690610c48565b60405180910390fd5b600180600083815260200190815260200160002060000160146101000a81548160ff02191690831515021790555042600160008381526020019081526020016000206003018190555050565b6000819050919050565b61050e816104fb565b82525050565b60006020820190506105296000830184610505565b92915050565b6000604051905090565b600080fd5b600080fd5b61054c816104fb565b811461055757600080fd5b50565b60008135905061056981610543565b92915050565b60006020828403121561058557610584610539565b5b60006105938482850161055a565b91505092915050565b600073ffffffffffffffffffffffffffffffffffffffff82169050919050565b60006105c78261059c565b9050919050565b6105d7816105bc565b82525050565b600081519050919050565b600082825260208201905092915050565b60005b838110156106175780820151818401526020810190506105fc565b83811115610626576000848401525b50505050565b6000601f19601f8301169050919050565b6000610648826105dd565b61065281856105e8565b93506106628185602086016105f9565b61066b8161062c565b840191505092915050565b60008115159050919050565b61068b81610676565b82525050565b60006060820190506106a660008301866105ce565b81810360208301526106b8818561063d565b90506106c76040830184610682565b949350505050565b600060a0820190506106e460008301886105ce565b6106f16020830187610682565b8181036040830152610703818661063d565b90506107126060830185610505565b61071f6080830184610505565b9695505050505050565b600080fd5b600080fd5b7f4e487b7100000000000000000000000000000000000000000000000000000000600052604160045260246000fd5b61076b8261062c565b810181811067ffffffffffffffff8211171561078a57610789610733565b5b80604052505050565b600061079d61052f565b90506107a98282610762565b919050565b600067ffffffffffffffff8211156107c9576107c8610733565b5b6107d28261062c565b9050602081019050919050565b82818337600083830152505050565b60006108016107fc846107ae565b610793565b90508281526020810184848401111561081d5761081c61072e565b5b6108288482856107df565b509392505050565b600082601f83011261084557610844610729565b5b81356108558482602086016107ee565b91505092915050565b60006020828403121561087457610873610539565b5b600082013567ffffffffffffffff8111156108925761089161053e565b5b61089e84828501610830565b91505092915050565b7f4e487b7100000000000000000000000000000000000000000000000000000000600052602260045260246000fd5b600060028204905060018216806108ee57607f821691505b602082108103610901576109006108a7565b5b50919050565b7f4e487b7100000000000000000000000000000000000000000000000000000000600052601160045260246000fd5b6000610941826104fb565b91507fffffffffffffffffffffffffffffffffffffffffffffffffffffffffffffffff820361097357610972610907565b5b600182019050919050565b60008190508160005260206000209050919050565b60006020601f8301049050919050565b600082821b905092915050565b6000600883026109e07fffffffffffffffffffffffffffffffffffffffffffffffffffffffffffffffff826109a3565b6109ea86836109a3565b95508019841693508086168417925050509392505050565b6000819050919050565b6000610a27610a22610a1d846104fb565b610a02565b6104fb565b9050919050565b6000819050919050565b610a4183610a0c565b610a55610a4d82610a2e565b8484546109b0565b825550505050565b600090565b610a6a610a5d565b610a75818484610a38565b505050565b5b81811015610a9957610a8e600082610a62565b600181019050610a7b565b5050565b601f821115610ade57610aaf8161097e565b610ab884610993565b81016020851015610ac7578190505b610adb610ad385610993565b830182610a7a565b50505b505050565b600082821c905092915050565b6000610b0160001984600802610ae3565b1980831691505092915050565b6000610b1a8383610af0565b9150826002028217905092915050565b610b33826105dd565b67ffffffffffffffff811115610b4c57610b4b610733565b5b610b5682546108d6565b610b61828285610a9d565b600060209050601f831160018114610b945760008415610b82578287015190505b610b8c8582610b0e565b865550610bf4565b601f198416610ba28661097e565b60005b82811015610bca57848901518255600182019150602085019450602081019050610ba5565b86831015610be75784890151610be3601f891682610af0565b8355505b6001600288020188555050505b505050505050565b7f5461736b20697320416c726561647920436f6d706c7465640000000000000000600082015250565b6000610c326018836105e8565b9150610c3d82610bfc565b602082019050919050565b60006020820190508181036000830152610c6181610c25565b905091905056fea26469706673582212205adf478bcbef50fe5ebe72a367690ce0bdcdde804312972e8b757bf84d10004964736f6c634300080f0033",
  "immutableReferences": {},
  "source": "// SPDX-License-Identifier: MIT\npragma solidity >=0.4.22 <0.9.0;\n\ncontract todo_list {\n\n  uint public count = 0;\n\n  struct task{\n    address creator;\n    bool completed;\n    string task;\n    uint createdAt;\n    uint compltedAt;\n  }\n  \n  mapping(uint => task) public TaskList;\n\n  function addTask(string memory name) public {\n      count++;\n      TaskList[count] = task({creator : msg.sender, completed : false, task: name, createdAt : block.timestamp, compltedAt : 0});\n  }\n\n  function getCount() public view returns(uint num){\n    num = count;\n  }\n\n  function getTask(uint id) public view returns (address owner ,string memory askedTask, bool completed){\n      askedTask =  TaskList[id].task;\n      completed = TaskList[id].completed;\n      owner = TaskList[id].creator;\n\n  }\n\n  function completeTask(uint id) public {\n\n    require(!TaskList[id].completed, \"Task is Already Complted\");\n\n    TaskList[id].completed = true;\n    TaskList[id].compltedAt = block.timestamp;\n  }\n  \n  constructor(string memory taskName){\n    addTask(taskName);\n  }\n}\n",
  "sourcePath": "E:\\GitRepos\\Blockchain_technology\\Todo_application\\contracts\\todo_list.sol",
  "compiler": {
    "name": "solc",
    "version": "0.8.15+commit.e14f2714.Emscripten.clang"
  },
  "schemaVersion": "3.4.8",
  "updatedAt": "2022-07-03T13:50:48.215Z",
  "networkType": "ethereum",
  "devdoc": {
    "kind": "dev",
    "methods": {},
    "version": 1
  },
  "userdoc": {
    "kind": "user",
    "methods": {},
    "version": 1
  }
}